{
  "transactions": [
    {
      "hash": "0xd88d179e8d133f4400beca81f4207649a3776fefc079b21d15d71ebcdfa7d481",
      "transactionType": "CALL",
      "contractName": null,
      "contractAddress": "0xad6c53ed6933027baf1c860050df46ba5cadd975",
      "function": "publishImpact(address,address,uint256)",
      "arguments": [
        "0x4200000000000000000000000000000000000006",
        "0x036CbD53842c5426634e7929541eC2318f3dCF7e",
        "40"
      ],
      "transaction": {
        "from": "0x02af376f613938a58c9567128e82bf3536a76f27",
        "to": "0xad6c53ed6933027baf1c860050df46ba5cadd975",
        "gas": "0x80b7",
        "value": "0x0",
        "input": "0x10d42aa80000000000000000000000004200000000000000000000000000000000000006000000000000000000000000036cbd53842c5426634e7929541ec2318f3dcf7e0000000000000000000000000000000000000000000000000000000000000028",
        "nonce": "0x4",
        "chainId": "0x14a34"
      },
      "additionalContracts": [],
      "isFixedGasLimit": false
    }
  ],
  "receipts": [
    {
      "status": "0x1",
      "cumulativeGasUsed": "0x18d0e5",
      "logs": [
        {
          "address": "0xad6c53ed6933027baf1c860050df46ba5cadd975",
          "topics": [
            "0xb4c21c77f904492f8a78d9d0ed2145950956aced851cceca04a1217031a28698"
          ],
          "data": "0x0000000000000000000000004200000000000000000000000000000000000006000000000000000000000000036cbd53842c5426634e7929541ec2318f3dcf7e00000000000000000000000000000000000000000000000000000000000000010000000000000000000000000000000000000000000000000000000000000028",
          "blockHash": "0x0000000000000000000000000000000000000000000000000000000000000000",
          "blockNumber": "0x252510c",
          "blockTimestamp": "0x69b800f8",
          "transactionHash": "0xd88d179e8d133f4400beca81f4207649a3776fefc079b21d15d71ebcdfa7d481",
          "transactionIndex": "0x27",
          "logIndex": "0x12",
          "removed": false
        }
      ],
      "logsBloom": "0x00000000000000000000000000000000000000000000000000000000000000000000000000000000000000000000000000000000000000000000000000000000000000000000000000000000000000000000000000000000000000400000000000000000000000000000000000000000000000000000000000000000000000000000000000000000000000000000000000000000080000000000000100000040000000100000000000000000000000000000000000000000000000000000000002000000000000000000000000000000000000000000000000000000000000000000000000000000000000000000000000000000000000000000000000000000",
      "type": "0x2",
      "transactionHash": "0xd88d179e8d133f4400beca81f4207649a3776fefc079b21d15d71ebcdfa7d481",
      "transactionIndex": "0x27",
      "blockHash": "0x0000000000000000000000000000000000000000000000000000000000000000",
      "blockNumber": "0x252510c",
      "gasUsed": "0x5d30",
      "effectiveGasPrice": "0x5b8d80",
      "blobGasUsed": "0x364c",
      "from": "0x02af376f613938a58c9567128e82bf3536a76f27",
      "to": "0xad6c53ed6933027baf1c860050df46ba5cadd975",
      "contractAddress": null,
      "daFootprintGasScalar": "0x8b",
      "l1BaseFeeScalar": "0x44d",
      "l1BlobBaseFee": "0x5a5b2",
      "l1BlobBaseFeeScalar": "0xa118b",
      "l1Fee": "0x174a26b",
      "l1GasPrice": "0xa",
      "l1GasUsed": "0x640"
    }
  ],
  "libraries": [],
  "pending": [],
  "returns": {},
  "timestamp": 1773666551,
  "chain": 84532,
  "commit": "3107747"
}