{
  "transactions": [
    {
      "hash": null,
      "transactionType": "CALL",
      "contractName": "LiquidityCache",
      "contractAddress": "0x81f972ef7a8d5f5f043573a42ccca590dc8e203a",
      "function": "setWriter(address)",
      "arguments": [
        "0x9299472A6399Fd1027ebF067571Eb3e3D7837FC4"
      ],
      "transaction": {
        "from": "0x02af376f613938a58c9567128e82bf3536a76f27",
        "to": "0x81f972ef7a8d5f5f043573a42ccca590dc8e203a",
        "gas": "0x10319",
        "value": "0x0",
        "input": "0x39e205230000000000000000000000009299472a6399fd1027ebf067571eb3e3d7837fc4",
        "nonce": "0x6",
        "chainId": "0x515"
      },
      "additionalContracts": [],
      "isFixedGasLimit": false
    }
  ],
  "receipts": [],
  "libraries": [],
  "pending": [],
  "returns": {},
  "timestamp": 1773532166,
  "chain": 1301,
  "commit": "0d69f58"
}