{
  "transactions": [
    {
      "hash": null,
      "transactionType": "CALL",
      "contractName": null,
      "contractAddress": "0xccddc149c1c8c811d00794b340c8f316d9a550c0",
      "function": "registerConfig((address,address,uint24,int24,address),(uint256,uint256,uint256,uint256))",
      "arguments": [
        "(0x036CbD53842c5426634e7929541eC2318f3dCF7e, 0x4200000000000000000000000000000000000006, 3000, 60, 0xCcDDC149c1C8C811d00794B340c8f316d9A550C0)",
        "(15, 86400, 0, 115792089237316195423570985008687907853269984665640564039457584007913129639935)"
      ],
      "transaction": {
        "from": "0x02af376f613938a58c9567128e82bf3536a76f27",
        "to": "0xccddc149c1c8c811d00794b340c8f316d9a550c0",
        "gas": "0x1f301",
        "value": "0x0",
        "input": "0x28e346b8000000000000000000000000036cbd53842c5426634e7929541ec2318f3dcf7e00000000000000000000000042000000000000000000000000000000000000060000000000000000000000000000000000000000000000000000000000000bb8000000000000000000000000000000000000000000000000000000000000003c000000000000000000000000ccddc149c1c8c811d00794b340c8f316d9a550c0000000000000000000000000000000000000000000000000000000000000000f00000000000000000000000000000000000000000000000000000000000151800000000000000000000000000000000000000000000000000000000000000000ffffffffffffffffffffffffffffffffffffffffffffffffffffffffffffffff",
        "nonce": "0x11",
        "chainId": "0x515"
      },
      "additionalContracts": [],
      "isFixedGasLimit": false
    },
    {
      "hash": null,
      "transactionType": "CALL",
      "contractName": null,
      "contractAddress": "0x00b036b58a818b1bc34d502d3fe730db729e62ac",
      "function": "initialize((address,address,uint24,int24,address),uint160)",
      "arguments": [
        "(0x036CbD53842c5426634e7929541eC2318f3dCF7e, 0x4200000000000000000000000000000000000006, 3000, 60, 0xCcDDC149c1C8C811d00794B340c8f316d9A550C0)",
        "1446604449849817285854646000000"
      ],
      "transaction": {
        "from": "0x02af376f613938a58c9567128e82bf3536a76f27",
        "to": "0x00b036b58a818b1bc34d502d3fe730db729e62ac",
        "gas": "0x2b33f",
        "value": "0x0",
        "input": "0x6276cbbe000000000000000000000000036cbd53842c5426634e7929541ec2318f3dcf7e00000000000000000000000042000000000000000000000000000000000000060000000000000000000000000000000000000000000000000000000000000bb8000000000000000000000000000000000000000000000000000000000000003c000000000000000000000000ccddc149c1c8c811d00794b340c8f316d9a550c00000000000000000000000000000000000000012423b27aab7ef1faf7b645980",
        "nonce": "0x12",
        "chainId": "0x515"
      },
      "additionalContracts": [],
      "isFixedGasLimit": false
    }
  ],
  "receipts": [],
  "libraries": [],
  "pending": [],
  "returns": {},
  "timestamp": 1773680852,
  "chain": 1301,
  "commit": "4a63d6c"
}